{
  "contractName": "PrivateFundFactory",
  "abi": [
    {
      "anonymous": false,
      "inputs": [
        {
          "indexed": false,
          "name": "newAddress",
          "type": "address"
        }
      ],
      "name": "ContractCreated",
      "type": "event"
    },
    {
      "constant": false,
      "inputs": [
        {
          "name": "_raiseGoal",
          "type": "uint256"
        },
        {
          "name": "_beneficiary",
          "type": "address"
        },
        {
          "name": "_trustees",
          "type": "address[]"
        },
        {
          "name": "_quorum",
          "type": "uint256"
        },
        {
          "name": "_boardMembers",
          "type": "address[]"
        },
        {
          "name": "_milestones",
          "type": "uint256[]"
        },
        {
          "name": "_funder",
          "type": "address"
        },
        {
          "name": "_unanimityForRefunds",
          "type": "bool"
        }
      ],
      "name": "createPrivateFund",
      "outputs": [
        {
          "name": "",
          "type": "address"
        }
      ],
      "payable": false,
      "stateMutability": "nonpayable",
      "type": "function"
    }
  ],
  "bytecode": "0x608060405234801561001057600080fd5b506129d0806100206000396000f300608060405260043610610041576000357c0100000000000000000000000000000000000000000000000000000000900463ffffffff1680632e99887014610046575b600080fd5b34801561005257600080fd5b5061019060048036038101908080359060200190929190803573ffffffffffffffffffffffffffffffffffffffff16906020019092919080359060200190820180359060200190808060200260200160405190810160405280939291908181526020018383602002808284378201915050505050509192919290803590602001909291908035906020019082018035906020019080806020026020016040519081016040528093929190818152602001838360200280828437820191505050505050919291929080359060200190820180359060200190808060200260200160405190810160405280939291908181526020018383602002808284378201915050505050509192919290803573ffffffffffffffffffffffffffffffffffffffff1690602001909291908035151590602001909291905050506101d2565b604051808273ffffffffffffffffffffffffffffffffffffffff1673ffffffffffffffffffffffffffffffffffffffff16815260200191505060405180910390f35b60008089898989898989896101e5610437565b808981526020018873ffffffffffffffffffffffffffffffffffffffff1673ffffffffffffffffffffffffffffffffffffffff1681526020018060200187815260200180602001806020018673ffffffffffffffffffffffffffffffffffffffff1673ffffffffffffffffffffffffffffffffffffffff1681526020018515151515815260200184810384528a818151815260200191508051906020019060200280838360005b838110156102a757808201518184015260208101905061028c565b50505050905001848103835288818151815260200191508051906020019060200280838360005b838110156102e95780820151818401526020810190506102ce565b50505050905001848103825287818151815260200191508051906020019060200280838360005b8381101561032b578082015181840152602081019050610310565b505050509050019b505050505050505050505050604051809103906000f08015801561035b573d6000803e3d6000fd5b5090507fcf78cf0d6f3d8371e1075c69c492ab4ec5d8cf23a1a239b6a51a1d00be7ca31281604051808273ffffffffffffffffffffffffffffffffffffffff1673ffffffffffffffffffffffffffffffffffffffff16815260200191505060405180910390a160008190806001815401808255809150509060018203906000526020600020016000909192909190916101000a81548173ffffffffffffffffffffffffffffffffffffffff021916908373ffffffffffffffffffffffffffffffffffffffff160217905550508091505098975050505050505050565b60405161255d8061044883390190560060806040523480156200001157600080fd5b506040516200255d3803806200255d83398101806040528101908080519060200190929190805190602001909291908051820192919060200180519060200190929190805182019291906020018051820192919060200180519060200190929190805190602001909291905050506000806000806000670de0b6b3a76400008d101515156200012e576040517f08c379a00000000000000000000000000000000000000000000000000000000081526004018080602001828103825260228152602001807f526169736520676f616c20697320736d616c6c6572207468616e20312065746881526020017f657200000000000000000000000000000000000000000000000000000000000081525060400191505060405180910390fd5b6001885110151515620001a9576040517f08c379a000000000000000000000000000000000000000000000000000000000815260040180806020018281038252601d8152602001807f4d696c6573746f6e6573206d757374206265206174206c65617374203100000081525060200191505060405180910390fd5b88518a1115151562000249576040517f08c379a00000000000000000000000000000000000000000000000000000000081526004018080602001828103825260328152602001807f71756f72756d206973206c6172676572207468616e20746f74616c206e756d6281526020017f6572206f6620626f6172644d656d62657273000000000000000000000000000081525060400191505060405180910390fd5b60018a10151515620002c3576040517f08c379a00000000000000000000000000000000000000000000000000000000081526004018080602001828103825260198152602001807f71756f72756d206d757374206265206174206c6561737420310000000000000081525060200191505060405180910390fd5b60009450600093505b87518410156200045f578784815181101515620002e557fe5b90602001906020020151925060008311151562000390576040517f08c379a00000000000000000000000000000000000000000000000000000000081526004018080602001828103825260278152602001807f4d696c6573746f6e6520616d6f756e74206d757374206265206772656174657281526020017f207468616e20300000000000000000000000000000000000000000000000000081525060400191505060405180910390fd5b620003b38386620007846401000000000262001baf179091906401000000009004565b9450600960606040519081016040528085815260200160001515815260200160001515815250908060018154018082558091505090600182039060005260206000209060020201600090919290919091506000820151816000015560208201518160010160006101000a81548160ff02191690831515021790555060408201518160010160016101000a81548160ff0219169083151502179055505050508380600101945050620002cc565b8c85141515620004fd576040517f08c379a00000000000000000000000000000000000000000000000000000000081526004018080602001828103825260258152602001807f4d696c6573746f6e6520746f74616c206d75737420657175616c20726169736581526020017f20676f616c00000000000000000000000000000000000000000000000000000081525060400191505060405180910390fd5b886008908051906020019062000515929190620007a1565b50600091505b600880549050821015620006a7576008828154811015156200053957fe5b9060005260206000200160009054906101000a900473ffffffffffffffffffffffffffffffffffffffff169050606060405190810160405280600980549050604051908082528060200260200182016040528015620005a75781602001602082028038833980820191505090505b508152602001600073ffffffffffffffffffffffffffffffffffffffff16815260200160011515815250600760008373ffffffffffffffffffffffffffffffffffffffff1673ffffffffffffffffffffffffffffffffffffffff16815260200190815260200160002060008201518160000190805190602001906200062e92919062000830565b5060208201518160010160006101000a81548173ffffffffffffffffffffffffffffffffffffffff021916908373ffffffffffffffffffffffffffffffffffffffff16021790555060408201518160010160146101000a81548160ff02191690831515021790555090505081806001019250506200051b565b896002819055508c6001819055508b600360006101000a81548173ffffffffffffffffffffffffffffffffffffffff021916908373ffffffffffffffffffffffffffffffffffffffff1602179055508a600590805190602001906200070e929190620007a1565b5086600460006101000a81548173ffffffffffffffffffffffffffffffffffffffff021916908373ffffffffffffffffffffffffffffffffffffffff16021790555085600660006101000a81548160ff021916908315150217905550600080819055505050505050505050505050505062000956565b600081830190508281101515156200079857fe5b80905092915050565b8280548282559060005260206000209081019282156200081d579160200282015b828111156200081c5782518260006101000a81548173ffffffffffffffffffffffffffffffffffffffff021916908373ffffffffffffffffffffffffffffffffffffffff16021790555091602001919060010190620007c2565b5b5090506200082c9190620008dd565b5090565b82805482825590600052602060002090601f01602090048101928215620008ca5791602002820160005b838211156200089957835183826101000a81548160ff02191690831515021790555092602001926001016020816000010492830192600103026200085a565b8015620008c85782816101000a81549060ff021916905560010160208160000104928301926001030262000899565b505b509050620008d9919062000923565b5090565b6200092091905b808211156200091c57600081816101000a81549073ffffffffffffffffffffffffffffffffffffffff021916905550600101620008e4565b5090565b90565b6200095391905b808211156200094f57600081816101000a81549060ff0219169055506001016200092a565b5090565b90565b611bf780620009666000396000f300608060405260043610610107576000357c0100000000000000000000000000000000000000000000000000000000900463ffffffff168063041ae8801461010c5780631703a018146101635780631fe4d9dd1461018e5780632b99d7e4146101bd57806338af3eed146101f657806355919e8b1461024d5780635ee230b714610290578063717d63a4146102fd5780637b3e5e7b1461036a5780637efe8a7b14610395578063879cff35146103da57806396b6a34e1461043f5780639ec45bbe1461046c578063a3e9436c14610499578063bff13785146104c4578063d7bb99ba14610552578063e89e4ed61461055c578063e92197fe146105b3578063fa89401a1461060e575b600080fd5b34801561011857600080fd5b50610121610651565b604051808273ffffffffffffffffffffffffffffffffffffffff1673ffffffffffffffffffffffffffffffffffffffff16815260200191505060405180910390f35b34801561016f57600080fd5b50610178610677565b6040518082815260200191505060405180910390f35b34801561019a57600080fd5b506101a361067d565b604051808215151515815260200191505060405180910390f35b3480156101c957600080fd5b506101f46004803603810190808035906020019092919080351515906020019092919050505061071e565b005b34801561020257600080fd5b5061020b610a92565b604051808273ffffffffffffffffffffffffffffffffffffffff1673ffffffffffffffffffffffffffffffffffffffff16815260200191505060405180910390f35b34801561025957600080fd5b5061028e600480360381019080803573ffffffffffffffffffffffffffffffffffffffff169060200190929190505050610ab8565b005b34801561029c57600080fd5b506102bb60048036038101908080359060200190929190505050610c7b565b604051808273ffffffffffffffffffffffffffffffffffffffff1673ffffffffffffffffffffffffffffffffffffffff16815260200191505060405180910390f35b34801561030957600080fd5b5061032860048036038101908080359060200190929190505050610cb9565b604051808273ffffffffffffffffffffffffffffffffffffffff1673ffffffffffffffffffffffffffffffffffffffff16815260200191505060405180910390f35b34801561037657600080fd5b5061037f610cf7565b6040518082815260200191505060405180910390f35b3480156103a157600080fd5b506103c060048036038101908080359060200190929190505050610cfd565b604051808215151515815260200191505060405180910390f35b3480156103e657600080fd5b50610425600480360381019080803573ffffffffffffffffffffffffffffffffffffffff16906020019092919080359060200190929190505050610e6d565b604051808215151515815260200191505060405180910390f35b34801561044b57600080fd5b5061046a60048036038101908080359060200190929190505050610ee6565b005b34801561047857600080fd5b50610497600480360381019080803590602001909291905050506112a9565b005b3480156104a557600080fd5b506104ae6114ce565b6040518082815260200191505060405180910390f35b3480156104d057600080fd5b50610505600480360381019080803573ffffffffffffffffffffffffffffffffffffffff1690602001909291905050506114d4565b604051808373ffffffffffffffffffffffffffffffffffffffff1673ffffffffffffffffffffffffffffffffffffffff168152602001821515151581526020019250505060405180910390f35b61055a611525565b005b34801561056857600080fd5b50610587600480360381019080803590602001909291905050506116f4565b604051808481526020018315151515815260200182151515158152602001935050505060405180910390f35b3480156105bf57600080fd5b506105f4600480360381019080803573ffffffffffffffffffffffffffffffffffffffff169060200190929190505050611747565b604051808215151515815260200191505060405180910390f35b34801561061a57600080fd5b5061064f600480360381019080803573ffffffffffffffffffffffffffffffffffffffff1690602001909291905050506118fe565b005b600460009054906101000a900473ffffffffffffffffffffffffffffffffffffffff1681565b60025481565b600080600090505b600580549050811015610715576005818154811015156106a157fe5b9060005260206000200160009054906101000a900473ffffffffffffffffffffffffffffffffffffffff1673ffffffffffffffffffffffffffffffffffffffff163373ffffffffffffffffffffffffffffffffffffffff161415610708576001915061071a565b8080600101915050610685565b600091505b5090565b6000600760003373ffffffffffffffffffffffffffffffffffffffff1673ffffffffffffffffffffffffffffffffffffffff16815260200190815260200160002060010160149054906101000a900460ff1615156107e4576040517f08c379a000000000000000000000000000000000000000000000000000000000815260040180806020018281038252601c8152602001807f43616c6c6572206973206e6f74206120626f617264206d656d6265720000000081525060200191505060405180910390fd5b60005460015414151561085f576040517f08c379a00000000000000000000000000000000000000000000000000000000081526004018080602001828103825260168152602001807f50726f706f73616c206973206e6f742066756e6465640000000000000000000081525060200191505060405180910390fd5b600760003373ffffffffffffffffffffffffffffffffffffffff1673ffffffffffffffffffffffffffffffffffffffff168152602001908152602001600020600001838154811015156108ae57fe5b90600052602060002090602091828204019190069054906101000a900460ff16905081151581151514151515610972576040517f08c379a00000000000000000000000000000000000000000000000000000000081526004018080602001828103825260358152602001807f566f74652076616c7565206d75737420626520646966666572656e742074686181526020017f6e206578697374696e6720766f7465207374617465000000000000000000000081525060400191505060405180910390fd5b60098381548110151561098157fe5b906000526020600020906002020160010160009054906101000a900460ff161515610a14576040517f08c379a000000000000000000000000000000000000000000000000000000000815260040180806020018281038252601d8152602001807f4d696c6573746f6e6520766f74696e67206d757374206265206f70656e00000081525060200191505060405180910390fd5b81600760003373ffffffffffffffffffffffffffffffffffffffff1673ffffffffffffffffffffffffffffffffffffffff16815260200190815260200160002060000184815481101515610a6457fe5b90600052602060002090602091828204019190066101000a81548160ff021916908315150217905550505050565b600360009054906101000a900473ffffffffffffffffffffffffffffffffffffffff1681565b600760003373ffffffffffffffffffffffffffffffffffffffff1673ffffffffffffffffffffffffffffffffffffffff16815260200190815260200160002060010160149054906101000a900460ff161515610b7c576040517f08c379a000000000000000000000000000000000000000000000000000000000815260040180806020018281038252601c8152602001807f43616c6c6572206973206e6f74206120626f617264206d656d6265720000000081525060200191505060405180910390fd5b600054600154141515610bf7576040517f08c379a00000000000000000000000000000000000000000000000000000000081526004018080602001828103825260168152602001807f50726f706f73616c206973206e6f742066756e6465640000000000000000000081525060200191505060405180910390fd5b80600760003373ffffffffffffffffffffffffffffffffffffffff1673ffffffffffffffffffffffffffffffffffffffff16815260200190815260200160002060010160006101000a81548173ffffffffffffffffffffffffffffffffffffffff021916908373ffffffffffffffffffffffffffffffffffffffff16021790555050565b600881815481101515610c8a57fe5b906000526020600020016000915054906101000a900473ffffffffffffffffffffffffffffffffffffffff1681565b600581815481101515610cc857fe5b906000526020600020016000915054906101000a900473ffffffffffffffffffffffffffffffffffffffff1681565b60005481565b60008060008060008054600154141515610d7f576040517f08c379a00000000000000000000000000000000000000000000000000000000081526004018080602001828103825260168152602001807f50726f706f73616c206973206e6f742066756e6465640000000000000000000081525060200191505060405180910390fd5b60009350600092505b600880549050831015610e5c57600883815481101515610da457fe5b9060005260206000200160009054906101000a900473ffffffffffffffffffffffffffffffffffffffff169150600760008373ffffffffffffffffffffffffffffffffffffffff1673ffffffffffffffffffffffffffffffffffffffff16815260200190815260200160002060000186815481101515610e2057fe5b90600052602060002090602091828204019190069054906101000a900460ff1690508015610e4f576001840193505b8280600101935050610d88565b600254841015945050505050919050565b6000600760008473ffffffffffffffffffffffffffffffffffffffff1673ffffffffffffffffffffffffffffffffffffffff16815260200190815260200160002060000182815481101515610ebe57fe5b90600052602060002090602091828204019190069054906101000a900460ff16905092915050565b6000806000610ef361067d565b1515610f67576040517f08c379a00000000000000000000000000000000000000000000000000000000081526004018080602001828103825260178152602001807f43616c6c6572206973206e6f742061207472757374656500000000000000000081525060200191505060405180910390fd5b600054600154141515610fe2576040517f08c379a00000000000000000000000000000000000000000000000000000000081526004018080602001828103825260168152602001807f50726f706f73616c206973206e6f742066756e6465640000000000000000000081525060200191505060405180910390fd5b600984815481101515610ff157fe5b906000526020600020906002020160010160019054906101000a900460ff16925082151515611088576040517f08c379a00000000000000000000000000000000000000000000000000000000081526004018080602001828103825260168152602001807f4d696c6573746f6e6520616c726561647920706169640000000000000000000081525060200191505060405180910390fd5b7fffffffffffffffffffffffffffffffffffffffffffffffffffffffffffffffff9150600090505b600980549050811015611101576009818154811015156110cc57fe5b906000526020600020906002020160010160019054906101000a900460ff16156110f4578091505b80806001019150506110b0565b60018201841415156111a1576040517f08c379a00000000000000000000000000000000000000000000000000000000081526004018080602001828103825260348152602001807f4d696c6573746f6e652072657175657374206d75737420626520666f7220666981526020017f72737420756e70616964206d696c6573746f6e6500000000000000000000000081525060400191505060405180910390fd5b6009848154811015156111b057fe5b906000526020600020906002020160010160009054906101000a900460ff1615151561126a576040517f08c379a000000000000000000000000000000000000000000000000000000000815260040180806020018281038252602e8152602001807f4d696c6573746f6e65206d757374206e6f74206861766520616c72656164792081526020017f6265656e2072657175657374656400000000000000000000000000000000000081525060400191505060405180910390fd5b600160098581548110151561127b57fe5b906000526020600020906002020160010160006101000a81548160ff02191690831515021790555050505050565b600080600054600154141515611327576040517f08c379a00000000000000000000000000000000000000000000000000000000081526004018080602001828103825260168152602001807f50726f706f73616c206973206e6f742066756e6465640000000000000000000081525060200191505060405180910390fd5b61133083610cfd565b915060098381548110151561134157fe5b906000526020600020906002020160010160019054906101000a900460ff16905081801561136d575080155b1561143557600160098481548110151561138357fe5b906000526020600020906002020160010160016101000a81548160ff02191690831515021790555060006009848154811015156113bc57fe5b906000526020600020906002020160010160006101000a81548160ff021916908315150217905550611430600360009054906101000a900473ffffffffffffffffffffffffffffffffffffffff1660098581548110151561141957fe5b906000526020600020906002020160000154611af9565b6114c9565b6040517f08c379a00000000000000000000000000000000000000000000000000000000081526004018080602001828103825260268152602001807f726571756972656420636f6e646974696f6e732077657265206e6f742073617481526020017f697366696564000000000000000000000000000000000000000000000000000081525060400191505060405180910390fd5b505050565b60015481565b60076020528060005260406000206000915090508060010160009054906101000a900473ffffffffffffffffffffffffffffffffffffffff16908060010160149054906101000a900460ff16905082565b600460009054906101000a900473ffffffffffffffffffffffffffffffffffffffff1673ffffffffffffffffffffffffffffffffffffffff163373ffffffffffffffffffffffffffffffffffffffff161415156115ea576040517f08c379a00000000000000000000000000000000000000000000000000000000081526004018080602001828103825260158152602001807f53656e646572206d7573742062652066756e646572000000000000000000000081525060200191505060405180910390fd5b60015461160234600054611baf90919063ffffffff16565b14151561169d576040517f08c379a00000000000000000000000000000000000000000000000000000000081526004018080602001828103825260278152602001807f436f6e747269627574696f6e206d7573742062652065786163746c792072616981526020017f736520676f616c0000000000000000000000000000000000000000000000000081525060400191505060405180910390fd5b346000819055503373ffffffffffffffffffffffffffffffffffffffff167f2da466a7b24304f47e87fa2e1e5a81b9831ce54fec19055ce277ca2f39ba42c4346040518082815260200191505060405180910390a2565b60098181548110151561170357fe5b90600052602060002090600202016000915090508060000154908060010160009054906101000a900460ff16908060010160019054906101000a900460ff16905083565b600080600080600080546001541415156117c9576040517f08c379a00000000000000000000000000000000000000000000000000000000081526004018080602001828103825260168152602001807f50726f706f73616c206973206e6f742066756e6465640000000000000000000081525060200191505060405180910390fd5b60009350600092505b6008805490508310156118c8576008838154811015156117ee57fe5b9060005260206000200160009054906101000a900473ffffffffffffffffffffffffffffffffffffffff169150600760008373ffffffffffffffffffffffffffffffffffffffff1673ffffffffffffffffffffffffffffffffffffffff16815260200190815260200160002060010160009054906101000a900473ffffffffffffffffffffffffffffffffffffffff1690508573ffffffffffffffffffffffffffffffffffffffff168173ffffffffffffffffffffffffffffffffffffffff1614156118bb576001840193505b82806001019350506117d2565b600660009054906101000a900460ff16156118ec57600880549050841494506118f5565b60025484101594505b50505050919050565b600760003373ffffffffffffffffffffffffffffffffffffffff1673ffffffffffffffffffffffffffffffffffffffff16815260200190815260200160002060010160149054906101000a900460ff1615156119c2576040517f08c379a000000000000000000000000000000000000000000000000000000000815260040180806020018281038252601c8152602001807f43616c6c6572206973206e6f74206120626f617264206d656d6265720000000081525060200191505060405180910390fd5b600054600154141515611a3d576040517f08c379a00000000000000000000000000000000000000000000000000000000081526004018080602001828103825260168152602001807f50726f706f73616c206973206e6f742066756e6465640000000000000000000081525060200191505060405180910390fd5b611a4681611747565b1515611ae0576040517f08c379a00000000000000000000000000000000000000000000000000000000081526004018080602001828103825260338152602001807f556e616e696d697479206973206e6f74207265616368656420746f207265667581526020017f6e6420746f20676976656e20616464726573730000000000000000000000000081525060400191505060405180910390fd5b8073ffffffffffffffffffffffffffffffffffffffff16ff5b8173ffffffffffffffffffffffffffffffffffffffff166108fc829081150290604051600060405180830381858888f19350505050158015611b3f573d6000803e3d6000fd5b507f419013ffbfd3a7e95a13645088f1f9b8aff6057aaa2a840cc18ddbbec3d1677c8282604051808373ffffffffffffffffffffffffffffffffffffffff1673ffffffffffffffffffffffffffffffffffffffff1681526020018281526020019250505060405180910390a15050565b60008183019050828110151515611bc257fe5b809050929150505600a165627a7a72305820da82c4977c67e0547302b4c9c055b1ddfcf3f7d37d0967c7e8773bf6c643e0e20029a165627a7a7230582022520e49e32c0654946f7dda963b9a10895ff935a126abb363b9c4b5f1f2d0a20029",
  "source": "pragma solidity ^0.4.24;\nimport \"./PrivateFund.sol\";\n\ncontract PrivateFundFactory {\n    address[] privateFunds;\n\n    event ContractCreated(address newAddress);\n\n    function createPrivateFund (\n        uint _raiseGoal,\n        address _beneficiary,\n        address[] _trustees,\n        uint _quorum,\n        address[] _boardMembers,\n        uint[] _milestones,\n        address _funder,\n        bool _unanimityForRefunds\n        ) public returns(address) {\n        address newPrivateFundContract = new PrivateFund(\n            _raiseGoal,\n            _beneficiary,\n            _trustees,\n            _quorum,\n            _boardMembers,\n            _milestones,\n            _funder,\n            _unanimityForRefunds\n        );\n        emit ContractCreated(newPrivateFundContract);\n        privateFunds.push(newPrivateFundContract);\n        return newPrivateFundContract;\n    }\n}",
  "sourcePath": "/Users/danielternyak2/ActiveDevelopment/grant-monorepo/contract/contracts/PrivateFundFactory.sol",
  "compiler": {
    "name": "solc",
    "version": "0.4.24+commit.e67f0147.Emscripten.clang"
  },
  "schemaVersion": "2.0.1",
  "updatedAt": "2018-11-14T00:06:51.898Z"
}